{
  "_format": "hh-sol-artifact-1",
  "contractName": "FCLBurner",
  "sourceName": "contracts/FCLBurner.sol",
  "abi": [
    {
      "inputs": [
        {
          "internalType": "address",
          "name": "fclTokenAddress",
          "type": "address"
        }
      ],
      "stateMutability": "nonpayable",
      "type": "constructor"
    },
    {
      "inputs": [
        {
          "internalType": "string",
          "name": "",
          "type": "string"
        }
      ],
      "name": "amountBurnedById",
      "outputs": [
        {
          "internalType": "uint256",
          "name": "",
          "type": "uint256"
        }
      ],
      "stateMutability": "view",
      "type": "function"
    },
    {
      "inputs": [
        {
          "internalType": "string",
          "name": "id",
          "type": "string"
        },
        {
          "internalType": "uint256",
          "name": "amount",
          "type": "uint256"
        }
      ],
      "name": "burn",
      "outputs": [],
      "stateMutability": "nonpayable",
      "type": "function"
    },
    {
      "inputs": [],
      "name": "fclTokenContract",
      "outputs": [
        {
          "internalType": "contract FCLToken",
          "name": "",
          "type": "address"
        }
      ],
      "stateMutability": "view",
      "type": "function"
    }
  ],
  "bytecode": "0x608060405234801561001057600080fd5b506040516106fb3803806106fb833981810160405281019061003291906100dc565b80600160006101000a81548173ffffffffffffffffffffffffffffffffffffffff021916908373ffffffffffffffffffffffffffffffffffffffff16021790555050610109565b600080fd5b600073ffffffffffffffffffffffffffffffffffffffff82169050919050565b60006100a98261007e565b9050919050565b6100b98161009e565b81146100c457600080fd5b50565b6000815190506100d6816100b0565b92915050565b6000602082840312156100f2576100f1610079565b5b6000610100848285016100c7565b91505092915050565b6105e3806101186000396000f3fe608060405234801561001057600080fd5b50600436106100415760003560e01c80631e73f7b614610046578063aa2ea1e214610076578063b48272cc14610094575b600080fd5b610060600480360381019061005b9190610317565b6100b0565b60405161006d9190610379565b60405180910390f35b61007e6100de565b60405161008b9190610413565b60405180910390f35b6100ae60048036038101906100a991906104ba565b610104565b005b6000818051602081018201805184825260208301602085012081835280955050505050506000915090505481565b600160009054906101000a900473ffffffffffffffffffffffffffffffffffffffff1681565b600160009054906101000a900473ffffffffffffffffffffffffffffffffffffffff1673ffffffffffffffffffffffffffffffffffffffff166379cc679033836040518363ffffffff1660e01b815260040161016192919061053b565b600060405180830381600087803b15801561017b57600080fd5b505af115801561018f573d6000803e3d6000fd5b5050505080600084846040516101a6929190610594565b908152602001604051809103902081905550505050565b6000604051905090565b600080fd5b600080fd5b600080fd5b600080fd5b6000601f19601f8301169050919050565b7f4e487b7100000000000000000000000000000000000000000000000000000000600052604160045260246000fd5b610224826101db565b810181811067ffffffffffffffff82111715610243576102426101ec565b5b80604052505050565b60006102566101bd565b9050610262828261021b565b919050565b600067ffffffffffffffff821115610282576102816101ec565b5b61028b826101db565b9050602081019050919050565b82818337600083830152505050565b60006102ba6102b584610267565b61024c565b9050828152602081018484840111156102d6576102d56101d6565b5b6102e1848285610298565b509392505050565b600082601f8301126102fe576102fd6101d1565b5b813561030e8482602086016102a7565b91505092915050565b60006020828403121561032d5761032c6101c7565b5b600082013567ffffffffffffffff81111561034b5761034a6101cc565b5b610357848285016102e9565b91505092915050565b6000819050919050565b61037381610360565b82525050565b600060208201905061038e600083018461036a565b92915050565b600073ffffffffffffffffffffffffffffffffffffffff82169050919050565b6000819050919050565b60006103d96103d46103cf84610394565b6103b4565b610394565b9050919050565b60006103eb826103be565b9050919050565b60006103fd826103e0565b9050919050565b61040d816103f2565b82525050565b60006020820190506104286000830184610404565b92915050565b600080fd5b600080fd5b60008083601f84011261044e5761044d6101d1565b5b8235905067ffffffffffffffff81111561046b5761046a61042e565b5b60208301915083600182028301111561048757610486610433565b5b9250929050565b61049781610360565b81146104a257600080fd5b50565b6000813590506104b48161048e565b92915050565b6000806000604084860312156104d3576104d26101c7565b5b600084013567ffffffffffffffff8111156104f1576104f06101cc565b5b6104fd86828701610438565b93509350506020610510868287016104a5565b9150509250925092565b600061052582610394565b9050919050565b6105358161051a565b82525050565b6000604082019050610550600083018561052c565b61055d602083018461036a565b9392505050565b600081905092915050565b600061057b8385610564565b9350610588838584610298565b82840190509392505050565b60006105a182848661056f565b9150819050939250505056fea2646970667358221220075e2ef7008b51a34b0a7983d4a18263e75af539e4fc9a1e860a64251a81030d64736f6c63430008110033",
  "linkReferences": {},
  "deployedLinkReferences": {}
}